:02000000C9280D
:08000800222AE03E7F39820745
:10001000003400342134FF34E93400340034003437
:100020000034003407340134103400340034043414
:10003000F8340034D834C8342034E834F834C034C8
:10004000F834E83400340034003408340634E03442
:100050000034F034C934F834C934F834F034F834A6
:100060003034C934D9343034383432343234F8345A
:10007000F034F834F034E834C134383434343434BF
:1000800006340234CC348134023449340034083428
:100090000134F034F8346134E03E7F3982070034B3
:1000A00000340034FF346D34003400340034003444
:1000B0000034C7344534003441340034803438349B
:1000C00030345934793471346934693430347934A2
:1000D000793409340034823449340034153400341E
:1000E00071343D3408343C3448344034293471345C
:1000F0000C340434C2340834B0343234383451341B
:100100003A345334693404343834803432348234E9
:10011000843488340C340234043490340834003489
:10012000F134B834403482074E344F3420344534EF
:100130004E3454345234593420342A342A3453340B
:1001400054344F3450342A342A3400348207203453
:100150005434553452344E342034003482074C34F5
:100160004534463454342034003482075234493400
:100170004734483454342034003472212008A00A13
:1001800082073329232920291D29A001A001A001CC
:1001900006293222831605108510051183120511D8
:1001A00028309A00A0016130F92172218621DC20DB
:1001B0003F30F921FE21E1280D30F9210A30F921E3
:1001C0000800FE210D080A3C031900290D08E9204A
:1001D000E1289E001E082E3C0319FD2829308400CA
:1001E000000884038000840A840A0408303C031950
:1001F000FA28F0281E08AF0008008030AF0408007D
:10020000FE210D08243C03190D29E1280515FE21C6
:100210000D08243C03190D290629051106220D0895
:10022000473C031914290629062206220622062223
:100230000D08423C0319BD2806290B306A212529E7
:100240000A306A21252905306A212030A100682260
:100250002108E9208F192A290D082C3C03190629A9
:100260000D08A100272903306A21062205150D0873
:100270004C3C031955290D08523C03194029062905
:100280009F011F089F0AA620003803194A29E92068
:100290007B2141299F011F089F0AB52000380319BF
:1002A0005429E9207B214B2906299F011F089F0A19
:1002B000A620003803195F29E9207B2156299F01D8
:1002C0001F089F0AAE20003803196929E9207B2105
:1002D000602906299E0006222C3A031D6B299E0BDD
:1002E0006B290800A801A901AA01AB01AC01AD016D
:1002F000AE01AF0108009B019C019D019B0F7E296F
:100300009C0F84299D0F08009D217E299F011F08B5
:100310009F0A9320003803199029E9207B2187291F
:1003200008009800083099008514980D031885106E
:1003300005140510990B9429080005111A0884006A
:1003400000080520912100084C2091210008841507
:100350008039031D8411F0300404FF3A9121051502
:100360009A0A1A08303C031D080028309A00080039
:100370009600160EBC2116080F39093C031CC32930
:10038000093C303EF929093C373EF929CC21960039
:10039000960ECC2116070800FE212F3C0318CC290D
:1003A0002F3C393C031CD729393C0F390800393C14
:1003B0000F39093E0800E62197000310970D970DAD
:1003C000970D97079707E62117070800FE21D03EF3
:1003D0000800970196000A301602031CF2299600C5
:1003E000970AEB291708303EF9211608303EF9210B
:1003F00008008C0039220F18FB29080068229B0F87
:10040000022A9D218F19FF290D08080068228F19E3
:10041000072A0D08080089000F2208080800831623
:1004200008148312080083168B13081555308900B1
:10043000AA3089008814081E1B2A08128B1708117D
:10044000831208000B1D09009200030E93000F1881
:10045000432A0F19882A7A2A130E8300920E120E4D
:100460000B1109008F018312851183168511051662
:1004700008008F140F140930900001309100900390
:100480005F228B16090083124830810090080319FF
:100490004B2A9003522A910803195B2A9103851174
:1004A0002C2A5B2A03148C0C031C85150318851158
:1004B0008F1C8B162C2A85118B120F102C2A831659
:1004C0000F30810083128515303081000B11080038
:1004D00083128F1509309000013091008D018F1229
:1004E0000F128316283081008312FF3081000B1118
:1004F0008B1609008312051E852A0F1583160030FE
:10050000810083128A3081002C2AFF3081002C2A3E
:1005100083160F308100831205088E004830810059
:1005200005080E0610390319972A05088E00900851
:1005300003199C2A900BA22A0E1A8F168B120F11E8
:0E0540008F112C2A03100E1E03148D0C2C2A72
:00000001FF
