:02000000C02816
:08000800242AE03E7F39820743
:10001000003400342134FF34E93400340034003437
:100020000034003407340134103400340034043414
:10003000F8340034D834C8342034E834F834C034C8
:10004000F834E83400340034003408340634E03442
:100050000034F034C934F834C934F834F034F834A6
:100060003034C934D9343034383432343234F8345A
:10007000F034F834F034E834C134383434343434BF
:1000800006340234CC348134023449340034083428
:100090000134F034F8346134E03E7F3982070034B3
:1000A00000340034FF346D34003400340034003444
:1000B0000034C7344534003441340034803438349B
:1000C00030345934793471346934693430347934A2
:1000D000793409340034823449340034153400341E
:1000E00071343D3408343C3448344034293471345C
:1000F0000C340434C2340834B0343234383451341B
:100100003A345334693404343834803432348234E9
:10011000843488340C340234043490340834003489
:10012000F134B834403482072A342A3453345434F6
:100130004F3450342A342A34003482072034543463
:10014000553452344E342034003482074C34453414
:10015000463454342034003482075234493447340E
:10016000483454342034003469212008A00A82071E
:100170002A291A2917291429A001A001A001FD2864
:1001800034228316051085100511831205112830BD
:100190009A00A0016130F02169217D21D3203F30F8
:1001A000F021F521D8280D30F0210A30F021080087
:1001B000F5210D080A3C0319F7280D08E020D8287E
:1001C0009E001E082E3C0319F428293084000008E4
:1001D00084038000840A840A0408303C0319F1284F
:1001E000E7281E08AF0008008030AF040800F521A2
:1001F0000D08243C03190429D8280515F5210D08FC
:10020000243C03190429FD28051108220D08473C48
:1002100003190B29FD2808220822082208220D08AC
:10022000423C0319B428FD280B3061211C290A30F7
:1002300061211C29053061212030A1006A2221089A
:10024000E0208F1921290D082C3C0319FD280D08E9
:10025000A1001E2903306121082205150D084C3C20
:1002600003194C290D08523C03193729FD289F0119
:100270001F089F0A9D20003803194129E0207221A0
:1002800038299F011F089F0AAC20003803194B2909
:10029000E02072214229FD289F011F089F0A9D200E
:1002A000003803195629E02072214D299F011F08AB
:1002B0009F0AA520003803196029E02072215729E0
:1002C000FD289E0008222C3A031D62299E0B6229FC
:1002D0000800A801A901AA01AB01AC01AD01AE0162
:1002E000AF0108009B019C019D019B0F75299C0F8C
:1002F0007B299D0F0800942175299F011F089F0AE3
:100300009320003803198729E02072217E290800F4
:100310009800083099008514980D0318851005146D
:100320000510990B8B29080005111A088400000894
:100330000520882100084C20882100088415803978
:10034000031D8411F0300404FF3A882105159A0A30
:100350001A08303C031D080028309A000800960057
:10036000160EB32116080F39093C031CBA29093CA3
:10037000303EF029093C373EF029C3219600960E05
:10038000C32116070800F5212F3C0318C3292F3C71
:10039000393C031CCE29393C0F390800393C0F3950
:1003A000093E0800DD2197000310970D970D970D6A
:1003B00097079707DD2117070800F521D03E0800B1
:1003C000970196000A301602031CE9299600970A45
:1003D000E2291708303EF0211608303EF0210800CF
:1003E0008C003B220F18F22908006A22A201A30107
:1003F0003C30A4009B0FFD299421A20F042AA30FD7
:10040000042AA40B042A7D218F19FA290D0808005B
:100410006A228F19092A0D0808008900112208088C
:100420000800831608148312080083168B1308151E
:1004300055308900AA3089008814081E1D2A081228
:100440008B170811831208000B1D09009200030E80
:1004500093000F18452A0F198A2A7C2A130E83004D
:10046000920E120E0B1109008F0183128511831653
:100470008511051608008F140F1409309000013003
:100480009100900361228B1609008312483081008D
:10049000900803194D2A9003542A910803195D2AE4
:1004A000910385112E2A5D2A03148C0C031C8515DB
:1004B000031885118F1C8B162E2A85118B120F1095
:1004C0002E2A83160F30810083128515303081006B
:1004D0000B11080083128F15093090000130910034
:1004E0008D018F120F128316283081008312FF3086
:1004F00081000B118B1609008312051E872A0F1528
:1005000083160030810083128A3081002E2AFF304A
:1005100081002E2A83160F308100831205088E0079
:100520004830810005080E0610390319992A05087C
:100530008E00900803199E2A900BA42A0E1A8F167B
:100540008B120F118F112E2A03100E1E03148D0C07
:020550002E2A51
:00000001FF
