:02000000C62810
:080008001F2AE03E3F39820788
:10001000003400346134FF34E934003400340034F7
:100020000034003407340134103400340034043414
:10003000F8340034D834C8342034E834F834C034C8
:10004000F834E83400340034003408340634E03442
:100050000034F034C934F834C934F834F034F834A6
:100060003034C934D9343034383432343234F8345A
:10007000F034F834F034E834C134383434343434BF
:1000800006340234CC348134023449340034083428
:1000900000340034E03E3F398207003400344034FD
:1000A000FF346D3400340034003400340034C7347D
:1000B00045340034413400348034383430345934D9
:1000C00079347134693469343034793479340934A9
:1000D00000348234493400341534003471343D34F2
:1000E00008343C3448344034293471340C340434FA
:1000F000C2340834B0343234383451343A3453349E
:10010000693404343834803432348234843488346A
:100110000C34023404349034083400340034003495
:1001200082074E344F34203445344E3454345234E4
:10013000593420342A342A34533454344F3450340C
:100140002A342A340034820720345434553452344B
:100150004E342034003482074C3445344634543411
:1001600020340034820752344934473448345434FC
:10017000203400346F212008A00A8207302920296A
:100180001D291A29A001A001A00103292F228316ED
:100190000510851005118312051128309A00A00161
:1001A0006130F6216F218321D9203F30F621FB21D8
:1001B000DE280D30F6210A30F6210800FB210D085B
:1001C0000A3C0319FD280D08E620DE289E001E08C3
:1001D0002E3C0319FA28293084000008840380008B
:1001E000840A840A0408303C0319F728ED281E0805
:1001F000AF0008008030AF040800FB210D08243C4C
:1002000003190A29DE280515FB210D08243C0319D2
:100210000A290329051103220D08473C0319112956
:10022000032903220322032203220D08423C03195F
:10023000BA2803290B30672122290A306721222995
:10024000053067212030A10065222108E6208F19A2
:1002500027290D082C3C031903290D08A100242986
:1002600003306721032205150D084C3C0319522960
:100270000D08523C03193D2903299F011F089F0ABD
:10028000A320003803194729E62078213E299F0141
:100290001F089F0AB220003803195129E62078214F
:1002A000482903299F011F089F0AA320003803192A
:1002B0005C29E620782153299F011F089F0AAB2063
:1002C000003803196629E62078215D2903299E005C
:1002D00003222C3A031D68299E0B68290800A801F7
:1002E000A901AA01AB01AC01AD01AE01AF0108004B
:1002F0009B019C019D019B0F7B299C0F81299D0FD8
:1003000008009A217B299F011F089F0A902000382E
:1003100003198D29E62078218429080098000830E7
:1003200099008514980D0318851005140510990B74
:100330009129080005111A088400000805208E2163
:1003400000084A208E21000884158039031D84117D
:10035000F0300404FF3A8E2105159A0A1A08303C41
:10036000031D080028309A0008009600160EB921D7
:1003700016080F39093C031CC029093C303EF629F8
:10038000093C373EF629C9219600960EC921160769
:100390000800FB212F3C0318C9292F3C393C031CC2
:1003A000D429393C0F390800393C0F39093E08007F
:1003B000E32197000310970D970D970D9707970767
:1003C000E32117070800FB21D03E080097019600A3
:1003D0000A301602031CEF299600970AE82917082D
:1003E000303EF6211608303EF62108008C003622F9
:1003F0000F18F829080065229B0FFF299A218F19F1
:10040000FC290D08080065228F19042A0D08080030
:1004100089000C22080808008316081483120800BB
:1004200083168B13081555308900AA30890088146B
:10043000081E182A08128B170811831208000B1DBA
:1004400009009200030E93000F18402A0F19852A05
:10045000772A130E8300920E120E0B1109008F01E2
:100460008312851183168511051608008F140F1449
:10047000093090000130910090035C228B16090036
:1004800083124830810090080319482A90034F2AAC
:1004900091080319582A91038511292A582A03140F
:1004A0008C0C031C8515031885118F1C8B16292AAB
:1004B00085118B120F10292A83160F3081008312A9
:1004C0008515303081000B11080083128F1509301B
:1004D0009000013091008D018F120F128316283089
:1004E00081008312FF3081000B118B1609008312EB
:1004F000051E822A0F1583160030810083128A3070
:100500008100292AFF308100292A83160F308100BB
:10051000831205088E004830810005080E06103948
:100520000319942A05088E0090080319992A900B44
:100530009F2A0E1A8F168B120F118F11292A031062
:080540000E1E03148D0C292A84
:00000001FF
